:020000040000fa
:080000000002040000000000f2
:020000040000fa
:04000800bc02000036
:020000040000fa
:04000c00bc02000032
:020000040000fa
:04001000bc0200002e
:020000040000fa
:04001400bc0200002a
:020000040000fa
:04001800bc02000026
:020000040000fa
:04001c00bc02000022
:020000040000fa
:04002000bc0200001e
:020000040000fa
:04002400bc0200001a
:020000040000fa
:04002800bc02000016
:020000040000fa
:04002c00bc02000012
:020000040000fa
:04003000bc0200000e
:020000040000fa
:04003400bc0200000a
:020000040000fa
:04003800bc02000006
:020000040000fa
:04003c00bc02000002
:020000040000fa
:04004000bc020000fe
:020000040000fa
:04004400bc020000fa
:020000040000fa
:04004800bc020000f6
:020000040000fa
:04004c00bc020000f2
:020000040000fa
:04005000bc020000ee
:020000040000fa
:04005400bc020000ea
:020000040000fa
:04005800bc020000e6
:020000040000fa
:04005c00bc020000e2
:020000040000fa
:04006000bc020000de
:020000040000fa
:04006400bc020000da
:020000040000fa
:04006800bc020000d6
:020000040000fa
:04006c00bc020000d2
:020000040000fa
:04007000bc020000ce
:020000040000fa
:04007400bc020000ca
:020000040000fa
:04007800bc020000c6
:020000040000fa
:04007c00bc020000c2
:020000040000fa
:04008000bc020000be
:020000040000fa
:04008400bc020000ba
:020000040000fa
:04008800bc020000b6
:020000040000fa
:04008c00bc020000b2
:020000040000fa
:04009000bc020000ae
:020000040000fa
:04009400bc020000aa
:020000040000fa
:04009800bc020000a6
:020000040000fa
:04009c00bc020000a2
:020000040000fa
:0400a000bc0200009e
:020000040000fa
:0400a400bc0200009a
:020000040000fa
:0400a800bc02000096
:020000040000fa
:0400ac00bc02000092
:020000040000fa
:0400b000bc0200008e
:020000040000fa
:0400b400bc0200008a
:020000040000fa
:0400b800bc02000086
:020000040000fa
:0400bc00bc02000082
:020000040000fa
:0400c000bc0200007e
:020000040000fa
:0400c400bc0200007a
:020000040000fa
:0400c800bc02000076
:020000040000fa
:0400cc00bc02000072
:020000040000fa
:0400d000bc0200006e
:020000040000fa
:0400d400bc0200006a
:020000040000fa
:0400d800bc02000066
:020000040000fa
:0400dc00bc02000062
:020000040000fa
:0400e000bc0200005e
:020000040000fa
:0400e400bc0200005a
:020000040000fa
:0400e800bc02000056
:020000040000fa
:0400ec00bc02000052
:020000040000fa
:0400f000bc0200004e
:020000040000fa
:0400f400bc0200004a
:020000040000fa
:0400f800bc02000046
:020000040000fa
:0400fc00bc02000042
:020000040000fa
:04010000bc0200003d
:020000040000fa
:04010400bc02000039
:020000040000fa
:04010800bc02000035
:020000040000fa
:04010c00bc02000031
:020000040000fa
:04011000bc0200002d
:020000040000fa
:04011400bc02000029
:020000040000fa
:04011800bc02000025
:020000040000fa
:04011c00bc02000021
:020000040000fa
:04012000bc0200001d
:020000040000fa
:04012400bc02000019
:020000040000fa
:04012800bc02000015
:020000040000fa
:04012c00bc02000011
:020000040000fa
:04013000bc0200000d
:020000040000fa
:04013400bc02000009
:020000040000fa
:04013800bc02000005
:020000040000fa
:04013c00bc02000001
:020000040000fa
:04014000bc020000fd
:020000040000fa
:04014400bc020000f9
:020000040000fa
:04020800bc02000034
:020000040000fa
:04020c00bc02000030
:020000040000fa
:04021000bc0200002c
:020000040000fa
:04021400bc02000028
:020000040000fa
:04021800bc02000024
:020000040000fa
:04021c00bc02000020
:020000040000fa
:04022000bc0200001c
:020000040000fa
:04022400bc02000018
:020000040000fa
:04022800bc02000014
:020000040000fa
:04022c00bc02000010
:020000040000fa
:04023000bc0200000c
:020000040000fa
:04023400bc02000008
:020000040000fa
:04023800bc02000004
:020000040000fa
:04023c00bc02000000
:020000040000fa
:04024000bc020000fc
:020000040000fa
:04024400bc020000f8
:020000040000fa
:04024800bc020000f4
:020000040000fa
:04024c00bc020000f0
:020000040000fa
:04025000bc020000ec
:020000040000fa
:04025400bc020000e8
:020000040000fa
:04025800bc020000e4
:020000040000fa
:04025c00bc020000e0
:020000040000fa
:04026000bc020000dc
:020000040000fa
:04026400bc020000d8
:020000040000fa
:04026800bc020000d4
:020000040000fa
:04026c00bc020000d0
:020000040000fa
:04027000bc020000cc
:020000040000fa
:04027400bc020000c8
:020000040000fa
:04027800bc020000c4
:020000040000fa
:04027c00bc020000c0
:020000040000fa
:04028000bc020000bc
:020000040000fa
:04028400bc020000b8
:020000040000fa
:04028800bc020000b4
:020000040000fa
:04028c00bc020000b0
:020000040000fa
:04029000bc020000ac
:020000040000fa
:04029400bc020000a8
:020000040000fa
:04029800bc020000a4
:020000040000fa
:04029c00bc020000a0
:020000040000fa
:0402a000bc0200009c
:020000040000fa
:0402a400bc02000098
:020000040000fa
:0402a800bc02000094
:020000040000fa
:0402ac00bc02000090
:020000040000fa
:0402b000bc0200008c
:020000040000fa
:0402b400bc02000088
:020000040000fa
:0402b800bc02000084
:020000040000fa
:0402bc00bc02000080
:020000040000fa
:0402c000bc0200007c
:020000040000fa
:0402c400bc02000078
:020000040000fa
:0402c800bc02000074
:020000040000fa
:0402cc00bc02000070
:020000040000fa
:0402d000bc0200006c
:020000040000fa
:0402d400bc02000068
:020000040000fa
:0402d800bc02000064
:020000040000fa
:0402dc00bc02000060
:020000040000fa
:0402e000bc0200005c
:020000040000fa
:0402e400bc02000058
:020000040000fa
:0402e800bc02000054
:020000040000fa
:0402ec00bc02000050
:020000040000fa
:0402f000bc0200004c
:020000040000fa
:0402f400bc02000048
:020000040000fa
:0402f800bc02000044
:020000040000fa
:0402fc00bc02000040
:020000040000fa
:04030000bc0200003b
:020000040000fa
:04030400bc02000037
:020000040000fa
:04030800bc02000033
:020000040000fa
:04030c00bc0200002f
:020000040000fa
:04031000bc0200002b
:020000040000fa
:04031400bc02000027
:020000040000fa
:04031800bc02000023
:020000040000fa
:04031c00bc0200001f
:020000040000fa
:04032000bc0200001b
:020000040000fa
:04032400bc02000017
:020000040000fa
:04032800bc02000013
:020000040000fa
:04032c00bc0200000f
:020000040000fa
:04033000bc0200000b
:020000040000fa
:04033400bc02000007
:020000040000fa
:04033800bc02000003
:020000040000fa
:04033c00bc020000ff
:020000040000fa
:04034000bc020000fb
:020000040000fa
:04034400bc020000f7
:020000040000fa
:100400002f8020000eff27000e0188000000000052
:10041000000020000000e000020032000001200087
:10042000200288000e000700a02e200001002000fe
:10043000810f70000100320014000700000020004e
:100440000000e00002003200000002000000000096
:10045000c0020200000000000040da000000fe00c0
:100460004440a900000020000000e000030032002a
:1004700000002000a00188004440a8000000060001
:100480008a1f78008b1f7800000006009101880009
:10049000800478000000eb001a003700e28444007a
:1004a00032a0b4009905ba00e284440032a0b4003e
:1004b0009906ba00e284440032a0b4000006eb00c2
:1004c000476fde00fd07b200636ce10003003a00f5
:1004d000ebff07000000eb000a003700606ce10052
:1004e00004003a00005deb008b05e900fdff3e00d3
:1004f000040037006168e100010032000086eb0073
:100500000b00070019c7ba001905ba000e04e00075
:1005100003003a000a00e000e0ff3a000000060095
:10052000fe07b2009e0188008a047800f5ff3700bc
:10053000395dba008b05e9000c003200295dba0074
:100540008b05e900080032000c00e00003003a00cf
:10055000e284440032a0b400f5ff370019ddba0090
:100560008b05e900faff3a008904e800e1844400c1
:1005700032a0b400000006000040da000000fe00d7
:020000040000fa
:100580000000fa00b0ff2f00601988002023ef0060
:1005900020002000401988003023ef0020002000b8
:1005a000201988002223ef0021e3a8002023a800bf
:1005b0002023a900000000000019800061006000f5
:1005c0000000e000fcff32000018800000408800be
:0405d000f6ff3700fb
:020000040000fa
:1005d400000800000200000000000000000000000d
:00000001FF
