:020000040000fa
:080000000002040000000000f2
:020000040000fa
:04000800f002000002
:020000040000fa
:04000c00f0020000fe
:020000040000fa
:04001000f0020000fa
:020000040000fa
:04001400f0020000f6
:020000040000fa
:04001800f0020000f2
:020000040000fa
:04001c00f0020000ee
:020000040000fa
:04002000f0020000ea
:020000040000fa
:04002400f0020000e6
:020000040000fa
:04002800f0020000e2
:020000040000fa
:04002c00f0020000de
:020000040000fa
:04003000f0020000da
:020000040000fa
:04003400f0020000d6
:020000040000fa
:04003800f0020000d2
:020000040000fa
:04003c00f0020000ce
:020000040000fa
:04004000f0020000ca
:020000040000fa
:04004400f0020000c6
:020000040000fa
:04004800f0020000c2
:020000040000fa
:04004c00f0020000be
:020000040000fa
:04005000f0020000ba
:020000040000fa
:04005400f0020000b6
:020000040000fa
:04005800f0020000b2
:020000040000fa
:04005c00f0020000ae
:020000040000fa
:04006000f0020000aa
:020000040000fa
:04006400f0020000a6
:020000040000fa
:04006800f0020000a2
:020000040000fa
:04006c00f00200009e
:020000040000fa
:04007000f00200009a
:020000040000fa
:04007400f002000096
:020000040000fa
:04007800f002000092
:020000040000fa
:04007c00f00200008e
:020000040000fa
:04008000f00200008a
:020000040000fa
:04008400f002000086
:020000040000fa
:04008800f002000082
:020000040000fa
:04008c00f00200007e
:020000040000fa
:04009000f00200007a
:020000040000fa
:04009400f002000076
:020000040000fa
:04009800f002000072
:020000040000fa
:04009c00f00200006e
:020000040000fa
:0400a000f00200006a
:020000040000fa
:0400a400f002000066
:020000040000fa
:0400a800f002000062
:020000040000fa
:0400ac00f00200005e
:020000040000fa
:0400b000f00200005a
:020000040000fa
:0400b400f002000056
:020000040000fa
:0400b800bc02000086
:020000040000fa
:0400bc00f00200004e
:020000040000fa
:0400c000f00200004a
:020000040000fa
:0400c400f002000046
:020000040000fa
:0400c800f002000042
:020000040000fa
:0400cc00f00200003e
:020000040000fa
:0400d000f00200003a
:020000040000fa
:0400d400f002000036
:020000040000fa
:0400d800f002000032
:020000040000fa
:0400dc00f00200002e
:020000040000fa
:0400e000f00200002a
:020000040000fa
:0400e400f002000026
:020000040000fa
:0400e800f002000022
:020000040000fa
:0400ec00f00200001e
:020000040000fa
:0400f000f00200001a
:020000040000fa
:0400f400f002000016
:020000040000fa
:0400f800f002000012
:020000040000fa
:0400fc00f00200000e
:020000040000fa
:04010000f002000009
:020000040000fa
:04010400f002000005
:020000040000fa
:04010800f002000001
:020000040000fa
:04010c00f0020000fd
:020000040000fa
:04011000f0020000f9
:020000040000fa
:04011400f0020000f5
:020000040000fa
:04011800f0020000f1
:020000040000fa
:04011c00f0020000ed
:020000040000fa
:04012000f0020000e9
:020000040000fa
:04012400f0020000e5
:020000040000fa
:04012800f0020000e1
:020000040000fa
:04012c00f0020000dd
:020000040000fa
:04013000f0020000d9
:020000040000fa
:04013400f0020000d5
:020000040000fa
:04013800f0020000d1
:020000040000fa
:04013c00f0020000cd
:020000040000fa
:04014000f0020000c9
:020000040000fa
:04014400f0020000c5
:020000040000fa
:04020800f002000000
:020000040000fa
:04020c00f0020000fc
:020000040000fa
:04021000f0020000f8
:020000040000fa
:04021400f0020000f4
:020000040000fa
:04021800f0020000f0
:020000040000fa
:04021c00f0020000ec
:020000040000fa
:04022000f0020000e8
:020000040000fa
:04022400f0020000e4
:020000040000fa
:04022800f0020000e0
:020000040000fa
:04022c00f0020000dc
:020000040000fa
:04023000f0020000d8
:020000040000fa
:04023400f0020000d4
:020000040000fa
:04023800f0020000d0
:020000040000fa
:04023c00f0020000cc
:020000040000fa
:04024000f0020000c8
:020000040000fa
:04024400f0020000c4
:020000040000fa
:04024800f0020000c0
:020000040000fa
:04024c00f0020000bc
:020000040000fa
:04025000f0020000b8
:020000040000fa
:04025400f0020000b4
:020000040000fa
:04025800f0020000b0
:020000040000fa
:04025c00f0020000ac
:020000040000fa
:04026000f0020000a8
:020000040000fa
:04026400f0020000a4
:020000040000fa
:04026800f0020000a0
:020000040000fa
:04026c00f00200009c
:020000040000fa
:04027000f002000098
:020000040000fa
:04027400f002000094
:020000040000fa
:04027800f002000090
:020000040000fa
:04027c00f00200008c
:020000040000fa
:04028000f002000088
:020000040000fa
:04028400f002000084
:020000040000fa
:04028800f002000080
:020000040000fa
:04028c00f00200007c
:020000040000fa
:04029000f002000078
:020000040000fa
:04029400f002000074
:020000040000fa
:04029800f002000070
:020000040000fa
:04029c00f00200006c
:020000040000fa
:0402a000f002000068
:020000040000fa
:0402a400f002000064
:020000040000fa
:0402a800f002000060
:020000040000fa
:0402ac00f00200005c
:020000040000fa
:0402b000f002000058
:020000040000fa
:0402b400f002000054
:020000040000fa
:0402b800f002000050
:020000040000fa
:0402bc00f00200004c
:020000040000fa
:0402c000f002000048
:020000040000fa
:0402c400f002000044
:020000040000fa
:0402c800f002000040
:020000040000fa
:0402cc00f00200003c
:020000040000fa
:0402d000f002000038
:020000040000fa
:0402d400f002000034
:020000040000fa
:0402d800f002000030
:020000040000fa
:0402dc00f00200002c
:020000040000fa
:0402e000f002000028
:020000040000fa
:0402e400f002000024
:020000040000fa
:0402e800f002000020
:020000040000fa
:0402ec00f00200001c
:020000040000fa
:0402f000f002000018
:020000040000fa
:0402f400f002000014
:020000040000fa
:0402f800f002000010
:020000040000fa
:0402fc00f00200000c
:020000040000fa
:04030000f002000007
:020000040000fa
:04030400f002000003
:020000040000fa
:04030800f0020000ff
:020000040000fa
:04030c00f0020000fb
:020000040000fa
:04031000f0020000f7
:020000040000fa
:04031400f0020000f3
:020000040000fa
:04031800f0020000ef
:020000040000fa
:04031c00f0020000eb
:020000040000fa
:04032000f0020000e7
:020000040000fa
:04032400f0020000e3
:020000040000fa
:04032800f0020000df
:020000040000fa
:04032c00f0020000db
:020000040000fa
:04033000f0020000d7
:020000040000fa
:04033400f0020000d3
:020000040000fa
:04033800f0020000cf
:020000040000fa
:04033c00f0020000cb
:020000040000fa
:04034000f0020000c7
:020000040000fa
:04034400f0020000c3
:020000040000fa
:100400002f8020006efe27000e01880000000000f3
:10041000000020000000e000020032000001200087
:10042000200288000e000700a034200001002000f8
:10043000810f70000100320014000700000020004e
:100440000000e00002003200000002000000000096
:100450003c030200000000000040da000000fe0043
:100460004440a900000020000000e000030032002a
:1004700000002000a00188004440a8000000060001
:100480008a1f78008b1f7800000006009101880009
:10049000800478000000eb001a003700e28444007a
:1004a00032a0b4009905ba00e284440032a0b4003e
:1004b0009906ba00e284440032a0b4000006eb00c2
:1004c000476fde00fd07b200636ce10003003a00f5
:1004d000ebff07000000eb000a003700606ce10052
:1004e00004003a00005deb008b05e900fdff3e00d3
:1004f000040037006168e100010032000086eb0073
:100500000b00070019c7ba001905ba000e04e00075
:1005100003003a000a00e000e0ff3a000000060095
:10052000fe07b2009e0188008a047800f5ff3700bc
:10053000395dba008b05e9000c003200295dba0074
:100540008b05e900080032000c00e00003003a00cf
:10055000e284440032a0b400f5ff370019ddba0090
:100560008b05e900faff3a008904e800e1844400c1
:1005700032a0b40000000600809fbe003400f800e6
:1005800000002000a00188000200fa000028ef000f
:100590000000eb00000f7800090037001e00780013
:1005a0008000400060ff270000804000900078003d
:1005b0000040800000804000004088001e0fe800de
:1005c0001e007800e40f5000f4ff34008880a9007a
:1005d0000080fa003400f9004f00be000040060021
:0805e0000040da000000fe00fb
:020000040000fa
:1005e8000000fa00311d800000f82f000080600034
:1005f8005001b300301d880000342000601d8800c1
:10060800607f2000401d880040002000701d880089
:100618008880a9009880a800a5e3a8000080fa00b7
:10062800000006000000fa00b0ff2f00601b8800e1
:10063800011b8000000e200001007000001b8800d4
:100648006143a8006043a80020002000401b8800e8
:100658007023ef00f0032000201b88006223ef00c6
:1006680086a0a90061e3a8000080fa000000060047
:100678000000fa00daff0700eaff0700d222ef00c5
:0c06880000408000a0168800fdff370035
:020000040000fa
:10069400000800000200000000000000f67f0000d7
:0c06a4000a000000000000000000000040
:00000001FF
