:020000040000fa
:080000000002040000000000f2
:020000040000fa
:0400080048030000a9
:020000040000fa
:04000c0048030000a5
:020000040000fa
:0400100048030000a1
:020000040000fa
:04001400480300009d
:020000040000fa
:040018004803000099
:020000040000fa
:04001c004803000095
:020000040000fa
:040020004803000091
:020000040000fa
:04002400480300008d
:020000040000fa
:040028004803000089
:020000040000fa
:04002c004803000085
:020000040000fa
:040030004803000081
:020000040000fa
:040034002e03000097
:020000040000fa
:040038004803000079
:020000040000fa
:04003c004803000075
:020000040000fa
:040040004803000071
:020000040000fa
:04004400480300006d
:020000040000fa
:040048004803000069
:020000040000fa
:04004c004803000065
:020000040000fa
:040050004803000061
:020000040000fa
:04005400480300005d
:020000040000fa
:040058004803000059
:020000040000fa
:04005c004803000055
:020000040000fa
:040060004803000051
:020000040000fa
:04006400480300004d
:020000040000fa
:040068004803000049
:020000040000fa
:04006c004803000045
:020000040000fa
:040070004803000041
:020000040000fa
:04007400480300003d
:020000040000fa
:04007800c8020000ba
:020000040000fa
:04007c004803000035
:020000040000fa
:040080004803000031
:020000040000fa
:04008400480300002d
:020000040000fa
:040088004803000029
:020000040000fa
:04008c004803000025
:020000040000fa
:040090004803000021
:020000040000fa
:04009400480300001d
:020000040000fa
:040098004803000019
:020000040000fa
:04009c004803000015
:020000040000fa
:0400a0004803000011
:020000040000fa
:0400a400480300000d
:020000040000fa
:0400a8004803000009
:020000040000fa
:0400ac004803000005
:020000040000fa
:0400b0004803000001
:020000040000fa
:0400b40048030000fd
:020000040000fa
:0400b80048030000f9
:020000040000fa
:0400bc0048030000f5
:020000040000fa
:0400c00048030000f1
:020000040000fa
:0400c40048030000ed
:020000040000fa
:0400c80048030000e9
:020000040000fa
:0400cc0048030000e5
:020000040000fa
:0400d00048030000e1
:020000040000fa
:0400d40048030000dd
:020000040000fa
:0400d80048030000d9
:020000040000fa
:0400dc0048030000d5
:020000040000fa
:0400e00048030000d1
:020000040000fa
:0400e40048030000cd
:020000040000fa
:0400e80048030000c9
:020000040000fa
:0400ec0048030000c5
:020000040000fa
:0400f00048030000c1
:020000040000fa
:0400f40048030000bd
:020000040000fa
:0400f80048030000b9
:020000040000fa
:0400fc0048030000b5
:020000040000fa
:0401000048030000b0
:020000040000fa
:0401040048030000ac
:020000040000fa
:0401080048030000a8
:020000040000fa
:04010c0048030000a4
:020000040000fa
:0401100048030000a0
:020000040000fa
:04011400480300009c
:020000040000fa
:040118004803000098
:020000040000fa
:04011c004803000094
:020000040000fa
:040120004803000090
:020000040000fa
:04012400480300008c
:020000040000fa
:040128004803000088
:020000040000fa
:04012c004803000084
:020000040000fa
:040130004803000080
:020000040000fa
:04013400480300007c
:020000040000fa
:040138004803000078
:020000040000fa
:04013c004803000074
:020000040000fa
:040140004803000070
:020000040000fa
:04014400480300006c
:020000040000fa
:0402080048030000a7
:020000040000fa
:04020c0048030000a3
:020000040000fa
:04021000480300009f
:020000040000fa
:04021400480300009b
:020000040000fa
:040218004803000097
:020000040000fa
:04021c004803000093
:020000040000fa
:04022000480300008f
:020000040000fa
:04022400480300008b
:020000040000fa
:040228004803000087
:020000040000fa
:04022c004803000083
:020000040000fa
:04023000480300007f
:020000040000fa
:040234002e03000095
:020000040000fa
:040238004803000077
:020000040000fa
:04023c004803000073
:020000040000fa
:04024000480300006f
:020000040000fa
:04024400480300006b
:020000040000fa
:040248004803000067
:020000040000fa
:04024c004803000063
:020000040000fa
:04025000480300005f
:020000040000fa
:04025400480300005b
:020000040000fa
:040258004803000057
:020000040000fa
:04025c004803000053
:020000040000fa
:04026000480300004f
:020000040000fa
:04026400480300004b
:020000040000fa
:040268004803000047
:020000040000fa
:04026c004803000043
:020000040000fa
:04027000480300003f
:020000040000fa
:04027400480300003b
:020000040000fa
:04027800c8020000b8
:020000040000fa
:04027c004803000033
:020000040000fa
:04028000480300002f
:020000040000fa
:04028400480300002b
:020000040000fa
:040288004803000027
:020000040000fa
:04028c004803000023
:020000040000fa
:04029000480300001f
:020000040000fa
:04029400480300001b
:020000040000fa
:040298004803000017
:020000040000fa
:04029c004803000013
:020000040000fa
:0402a000480300000f
:020000040000fa
:0402a400480300000b
:020000040000fa
:0402a8004803000007
:020000040000fa
:0402ac004803000003
:020000040000fa
:0402b00048030000ff
:020000040000fa
:0402b40048030000fb
:020000040000fa
:0402b80048030000f7
:020000040000fa
:0402bc0048030000f3
:020000040000fa
:0402c00048030000ef
:020000040000fa
:0402c40048030000eb
:020000040000fa
:0402c80048030000e7
:020000040000fa
:0402cc0048030000e3
:020000040000fa
:0402d00048030000df
:020000040000fa
:0402d40048030000db
:020000040000fa
:0402d80048030000d7
:020000040000fa
:0402dc0048030000d3
:020000040000fa
:0402e00048030000cf
:020000040000fa
:0402e40048030000cb
:020000040000fa
:0402e80048030000c7
:020000040000fa
:0402ec0048030000c3
:020000040000fa
:0402f00048030000bf
:020000040000fa
:0402f40048030000bb
:020000040000fa
:0402f80048030000b7
:020000040000fa
:0402fc0048030000b3
:020000040000fa
:0403000048030000ae
:020000040000fa
:0403040048030000aa
:020000040000fa
:0403080048030000a6
:020000040000fa
:04030c0048030000a2
:020000040000fa
:04031000480300009e
:020000040000fa
:04031400480300009a
:020000040000fa
:040318004803000096
:020000040000fa
:04031c004803000092
:020000040000fa
:04032000480300008e
:020000040000fa
:04032400480300008a
:020000040000fa
:040328004803000086
:020000040000fa
:04032c004803000082
:020000040000fa
:04033000480300007e
:020000040000fa
:04033400480300007a
:020000040000fa
:040338004803000076
:020000040000fa
:04033c004803000072
:020000040000fa
:04034000480300006e
:020000040000fa
:04034400480300006a
:020000040000fa
:100400008f8420000eff27000e01880000000000ee
:10041000000020000000e000020032000001200087
:1004200020028800140007009b0007000000e00085
:1004300003003a00204320000100200002003700a2
:100440000000200001002000810f70000100320038
:1004500014000700000020000000e000020032004d
:1004600000000200000000008c03020000000000f9
:100470000040da000000fe004440a9000000200017
:100480000000e0000300320000002000a00188000e
:100490004440a800000006008a1f78008b1f7800e7
:1004a0000000060091018800800478000000eb0045
:1004b0001a003700e284440032a0b4009905ba0063
:1004c000e284440032a0b4009906ba00e2844400f9
:1004d00032a0b4000006eb00476fde00fd07b2005b
:1004e000636ce10003003a00ebff07000000eb0043
:1004f0000a003700606ce10004003a00005deb0088
:100500008b05e900fdff3e00040037006168e10053
:10051000010032000086eb000b00070019c7ba008b
:100520001905ba000e04e00003003a000a00e000da
:10053000e0ff3a0000000600fe07b2009e018800be
:100540008a047800f5ff3700395dba008b05e900b1
:100550000c003200295dba008b05e900080032006a
:100560000c00e00003003a00e284440032a0b40032
:10057000f5ff370019ddba008b05e900faff3a00f4
:100580008904e800e184440032a0b40000000600c1
:10059000809fbe00821f78003400f8000000200019
:1005a000a00188000200fa008680a90040168000a1
:1005b000004f7800f0c2b3009e40780080cf50001a
:1005c0000400340090c3b3009e40780080cf5000f8
:1005d00010003400b0c2b3009e40780080cf5000bd
:1005e0000c003200d0c2b3009e40780080cf500093
:1005f00008003200a0c2b3009e40780080cf5000b7
:1006000004003200f0c2b3009e40780080cf50005a
:100610000d003a00104080000000e8001040880003
:1006200050408000e18320001e41780082707800f5
:100630000000e8005040880050408000e80f500063
:10064000010034000a28ef000080fa003400f900ad
:100650004f0178004f00be0000400600801f780068
:100660003400f80000002000a00188000000fa001b
:100670008460a900004080000000e800004088007d
:100680000080fa003400f9004f00780000400600b6
:0c0690000040da000000fe000000050041
:020000040000fa
:10069c000400fa00100798000000eb00000f78002f
:1006ac00140037003140800040408000e28320007d
:1006bc00e2417800c280200003f178008100e8005c
:1006cc00314088000000e800404088003140800044
:1006dc0010032000808f5000010034000628ef002a
:1006ec0040408000e80f5000010034000828ef0063
:1006fc001e0fe8001e0090009e007800808f5000b6
:10070c00e8ff35000080fa00000006000200fa0045
:10071c00400007000100370000000000014080008d
:10072c0020408000808f5000fbff34002040800070
:10073c00e40f500003003c00204080000000e80063
:10074c0020408800104080000000e0000a003400c7
:10075c0011408000010f78001e007800ccff0700cc
:10076c009680a900104080001e00500010408800a8
:10077c009680a8000428ef002016800000f0a70047
:10078c000000ea000000e9004f00de00201688009f
:10079c000028ef00e1ff37000000fa000421ef0011
:1007ac000421a90021088000f0fc2f0000806000cb
:1007bc00200888008460a90021058000f0ff280033
:1007cc00808060000000250001007000200588007a
:1007dc009460a800007721001008880005e1a800ab
:1007ec000080fa00000006000000fa008680a900d4
:1007fc007105800080ff2f00008060005000b30066
:10080c00700588008220a9009680a8000080fa005c
:10081c00000006000000fa0000f02f00001688000f
:10082c0000f02f00201688000080eb0030168800a6
:10083c000080eb00501988000080eb0060198800e4
:10084c000080eb00601b8800e7ff0700d2ff070069
:08085c000080fa000000060014
:020000040000fa
:100864000c08000032000000000000000008000036
:100874000a000000000000003e0800000a0000001a
:10088400000000000a080000020000000000000050
:040894000000000060
:00000001FF
